{
  "contractName": "dEventTicket",
  "abi": [
    {
      "constant": false,
      "inputs": [
        {
          "name": "_name",
          "type": "string"
        },
        {
          "name": "_price",
          "type": "uint256"
        },
        {
          "name": "_amount",
          "type": "uint256"
        }
      ],
      "name": "createTicket",
      "outputs": [],
      "payable": false,
      "stateMutability": "nonpayable",
      "type": "function"
    },
    {
      "constant": true,
      "inputs": [],
      "name": "getTicketsLength",
      "outputs": [
        {
          "name": "size",
          "type": "uint256"
        }
      ],
      "payable": false,
      "stateMutability": "view",
      "type": "function"
    },
    {
      "constant": true,
      "inputs": [
        {
          "name": "index",
          "type": "uint256"
        }
      ],
      "name": "getTicket",
      "outputs": [
        {
          "name": "name",
          "type": "string"
        },
        {
          "name": "price",
          "type": "uint256"
        },
        {
          "name": "amount",
          "type": "uint256"
        }
      ],
      "payable": false,
      "stateMutability": "view",
      "type": "function"
    },
    {
      "constant": false,
      "inputs": [
        {
          "name": "index",
          "type": "uint256"
        }
      ],
      "name": "payForTicket",
      "outputs": [],
      "payable": true,
      "stateMutability": "payable",
      "type": "function"
    },
    {
      "constant": true,
      "inputs": [],
      "name": "getMyTickets",
      "outputs": [
        {
          "name": "mytickets",
          "type": "uint256[]"
        }
      ],
      "payable": false,
      "stateMutability": "view",
      "type": "function"
    },
    {
      "constant": false,
      "inputs": [
        {
          "name": "index",
          "type": "uint256"
        }
      ],
      "name": "getMoneyBack",
      "outputs": [],
      "payable": false,
      "stateMutability": "nonpayable",
      "type": "function"
    }
  ],
  "bytecode": "0x608060405234801561001057600080fd5b50610833806100206000396000f300608060405260043610610078576000357c0100000000000000000000000000000000000000000000000000000000900463ffffffff1680631e404a0d1461007d5780634868cd63146100aa57806367fec8e4146100ca5780637dc379fa14610119578063983d7f45146101cd578063e1d10d85146101f8575b600080fd5b34801561008957600080fd5b506100a860048036038101908080359060200190929190505050610264565b005b6100c860048036038101908080359060200190929190505050610340565b005b3480156100d657600080fd5b50610117600480360381019080803590602001908201803590602001919091929391929390803590602001909291908035906020019092919050505061047a565b005b34801561012557600080fd5b5061014460048036038101908080359060200190929190505050610594565b6040518080602001848152602001838152602001828103825285818151815260200191508051906020019080838360005b83811015610190578082015181840152602081019050610175565b50505050905090810190601f1680156101bd5780820380516001836020036101000a031916815260200191505b5094505050505060405180910390f35b3480156101d957600080fd5b506101e261069f565b6040518082815260200191505060405180910390f35b34801561020457600080fd5b5061020d6106ac565b6040518080602001828103825283818151815260200191508051906020019060200280838360005b83811015610250578082015181840152602081019050610235565b505050509050019250505060405180910390f35b3373ffffffffffffffffffffffffffffffffffffffff166001600083815260200190815260200160002060009054906101000a900473ffffffffffffffffffffffffffffffffffffffff1673ffffffffffffffffffffffffffffffffffffffff161415156102d157600080fd5b3373ffffffffffffffffffffffffffffffffffffffff166108fc60026000848152602001908152602001600020549081150290604051600060405180830381858888f19350505050151561032457600080fd5b6000600260008381526020019081526020016000208190555050565b600060038281548110151561035157fe5b906000526020600020906003020190508060010154341015151561037457600080fd5b3373ffffffffffffffffffffffffffffffffffffffff166108fc826001015434039081150290604051600060405180830381858888f1935050505015156103ba57600080fd5b600081600201541115156103cd57600080fd5b6000803373ffffffffffffffffffffffffffffffffffffffff1673ffffffffffffffffffffffffffffffffffffffff16815260200190815260200160002082908060018154018082558091505090600182039060005260206000200160009091929091909150555060018160020154038160020181905550806001015460026000848152602001908152602001600020540160026000848152602001908152602001600020819055505050565b610482610740565b600060606040519081016040528087878080601f01602080910402602001604051908101604052809392919081815260200183838082843782019150505050505081526020018581526020018481525091506001600383908060018154018082558091505090600182039060005260206000209060030201600090919290919091506000820151816000019080519060200190610520929190610762565b5060208201518160010155604082015181600201555050039050336001600083815260200190815260200160002060006101000a81548173ffffffffffffffffffffffffffffffffffffffff021916908373ffffffffffffffffffffffffffffffffffffffff160217905550505050505050565b60606000806105a1610740565b6003858154811015156105b057fe5b906000526020600020906003020160606040519081016040529081600082018054600181600116156101000203166002900480601f0160208091040260200160405190810160405280929190818152602001828054600181600116156101000203166002900480156106635780601f1061063857610100808354040283529160200191610663565b820191906000526020600020905b81548152906001019060200180831161064657829003601f168201915b50505050508152602001600182015481526020016002820154815250509050806000015193508060200151925080604001519150509193909250565b6000600380549050905090565b60606000803373ffffffffffffffffffffffffffffffffffffffff1673ffffffffffffffffffffffffffffffffffffffff16815260200190815260200160002080548060200260200160405190810160405280929190818152602001828054801561073657602002820191906000526020600020905b815481526020019060010190808311610722575b5050505050905090565b6060604051908101604052806060815260200160008152602001600081525090565b828054600181600116156101000203166002900490600052602060002090601f016020900481019282601f106107a357805160ff19168380011785556107d1565b828001600101855582156107d1579182015b828111156107d05782518255916020019190600101906107b5565b5b5090506107de91906107e2565b5090565b61080491905b808211156108005760008160009055506001016107e8565b5090565b905600a165627a7a72305820aea7f9a59e87c60923a0a98f13247854f9e4b82b6916fc9d02e761f38b0aaa290029",
  "source": "pragma solidity ^0.4.24;\n\ncontract dEventTicket {\n    \n    struct Ticket{\n        string name;\n        uint256 price;\n        uint256 amount;\n    }\n    \n    mapping (address => uint256[]) paidTickets;\n    mapping (uint256 => address) ticketCreator;\n    mapping (uint256 => uint256) revenueOfTicket;\n    \n    Ticket[] tickets;\n    \n    function createTicket(string _name, uint256 _price, uint256 _amount) external{\n        Ticket memory ticket = Ticket({name:_name, price:_price, amount:_amount});\n        uint index = tickets.push(ticket)-1;\n        ticketCreator[index] = msg.sender;\n    }\n    \n    function getTicketsLength() external view returns (uint256 size) {\n        return tickets.length;\n    }\n    \n    function getTicket(uint index) external view returns(string name, uint256 price, uint256 amount){\n        Ticket memory ticket = tickets[index];\n        name = ticket.name;\n        price = ticket.price;\n        amount = ticket.amount;\n    }\n    \n    function payForTicket(uint index) external payable{\n        Ticket storage ticket = tickets[index];\n        require(msg.value >= ticket.price);\n        require(msg.sender.send(msg.value-ticket.price));\n        require(ticket.amount>0);\n        paidTickets[msg.sender].push(index);\n        ticket.amount = ticket.amount - 1;\n        revenueOfTicket[index] = revenueOfTicket[index] + ticket.price;\n    }\n    \n    function getMyTickets() external view returns (uint[] mytickets){\n        return paidTickets[msg.sender];\n    }\n    \n    function getMoneyBack (uint index) external {\n        require(ticketCreator[index] == msg.sender);\n        require(msg.sender.send(revenueOfTicket[index]));\n        revenueOfTicket[index] = 0;\n       \n    }\n    \n}",
  "sourcePath": "/Users/dev-mac-1/Desktop/colendi/ticket-dapp/contracts/dEventTicket.sol",
  "compiler": {
    "name": "solc",
    "version": "0.4.24+commit.e67f0147.Emscripten.clang"
  },
  "schemaVersion": "2.0.1",
  "updatedAt": "2018-11-14T21:30:51.830Z"
}